:020000040010EA
:100000006F0040086F0000086F00C0076F00800796
:100010006F0040076F0000076F00C0066F0080068A
:100020006F0040066F0000066F00C0056F0080057E
:100030006F0040056F0000056F00C0046F00800472
:100040006F0040046F0000046F00C0036F00800366
:100050006F0040036F0000036F00C0026F0080025A
:100060006F0040026F0000026F00C0016F0080014E
:100070006F0040016F0000016F00C0006F00800042
:100080006F0080006F00403A930000000681868177
:100090000682868206838683068486840685868514
:1000A00006868686068786870688868806898689E4
:1000B000068A868A068B868B068C868C068D868DB4
:1000C000068E868E068F868F17110000130181F32E
:1000D000170D0000130D4D41970D0000938DCD407D
:1000E0006357BD0123200D00110DE3DDADFF014578
:1000F0008145EF000039B7020200A102054323A0A9
:10010000620073005010F5BF411106C622C40008FA
:100110004165752C0545F5240100B240224441019A
:100120008280797122D60018232EA4FCFD57232645
:10013000F4FE8327C4FDA1079C43858B91E78327A9
:10014000C4FD9C432326F4FE8327C4FE3E8532541F
:1001500045618280011122CE00102326A4FEAE87C5
:10016000A305F4FE01008327C4FEA1079C43898BED
:10017000FDFB8327C4FE91070347B4FE98C301002B
:10018000724405618280011106CE22CC0010232624
:10019000A4FE0327C4FEA9476316F700B54537152B
:1001A00000804D3F8327C4FE93F7F70FBE853715B8
:1001B00000804D378327C4FE3E85F24062440561CE
:1001C0008280411106C622C4000837150080913F85
:1001D000AA873E85B240224441018280011106CEA9
:1001E00022CC00102326A4FE19A88327C4FE13875F
:1001F00017002326E4FE83C707003E85693783275F
:10020000C4FE83C70700F5F381473E85F240624490
:1002100005618280797106D622D40018232EA4FCB1
:10022000232604FE91A08327C4FDF1832324F4FE3A
:10023000032784FEA54763C9E700832784FE9387CD
:1002400007033E85893739A0832784FE9387770388
:100250003E85153F8327C4FD9207232EF4FC832798
:10026000C4FE85072326F4FE0327C4FE9D47E3DC76
:10027000E7FA01000100B250225445618280411129
:1002800022C60008B7070200A107054798C301006E
:10029000324441018280011122CE0010F327103434
:1002A0002326F4FE8327C4FE3E85724405618280C6
:1002B000011122CE0010F32720342326F4FE8327D9
:1002C000C4FE3E85724405618280011122CE001079
:1002D000F32730342326F4FE8327C4FE3E85724480
:1002E00005618280011122CE0010F32700B0232681
:1002F000F4FE8327C4FE3E8572440561828041116D
:1003000022C60008731000B001003244410182800F
:10031000797122D60018232EA4FC232CB4FC0327C9
:10032000C4FDFD4763F4E700854771A8B7071000D7
:1003300003A7C74D8327C4FD8A07BA972326F4FE77
:10034000032784FD8327C4FEB307F7402324F4FE6C
:10035000032784FEB70708006358F700032784FECD
:10036000B707F8FF6354F7008947B1A8832784FED5
:100370002322F4FE832744FE13974701B707E07F4B
:100380007D8F832744FE93969700B7071000F58F63
:100390005D8F832644FEB7F70F00F58F5D8F8327AF
:1003A00044FE9396B700B7070080F58FD98F93E787
:1003B000F7062320F4FE8327C4FE032704FE98C318
:1003C0000F10000081473E85325445618280011143
:1003D00022CE00102326A4FE8327C4FE73A047303C
:1003E0000100724405618280011122CE0010232693
:1003F000A4FE8327C4FE73B0473001007244056138
:100400008280011122CE00102326A4FE8327C4FE81
:1004100089C7A14773A0073021A0A14773B0073057
:100420000100724405618280411106C622C40008A1
:10043000B7071000138587495533B7071000138598
:10044000874A693BB70710001385874B413BA135AD
:10045000AA873E85C133B70710001385474CBD3BC3
:10046000813DAA873E857D33B70710001385074D70
:10047000B533A13DAA873E85713B2945293301004B
:10048000FDBF411122C60008B707100083A7074E21
:080490003E85324441018280E7
:10049800455843455054494F4E2121210A00000038
:1004A8003D3D3D3D3D3D3D3D3D3D3D3D0A0000005E
:1004B8004D4550433A202020307800000A4D4341F2
:1004C8005553453A203078000A4D5456414C3A204D
:0404D8002030780058
:0804DC00000010000F0F0F0FCC
:040000050010008067
:00000001FF
